:1010BC0075A15575A1AAE5B954F84405F5B9E4F53F
:0210CC00A1225F
:1010CE00EF4E600B05A105A1EF1F70F41E80F122FB
:1010A500AD07AC06ED4C600E7FE87E031210CEED69
:0710B5001D70F11C80EE220A
:100CA6000102040810204080293A3B3C3D3E3F406B
:100CB600414243444546474800351E1F2021222312
:100CC600242526272D2E2A494A4B2B141A08151798
:100CD6001C180C12132F30314C4D4E3904160709CF
:100CE6000A0B0D0E0F33340028000000E1001D1B17
:100CF6000619051110363738E500520000E0E3E228
:100D0600002C0000E6F065E450514F00000002029E
:100D160002020202010100000000000000000000C3
:100D260001010202020202020202020202020000A3
:100D3600010102020202020201010000000000009D
:100D46000000000000000101020202020101000091
:100D5600000000000000010102020202020202027B
:0E0D6600020202020101010101010000000071
:1010300041000B00410015014100160041000A006B
:0C10400041000C004100010041000001D3
:10108600740D2FF582E43400F583222402F582E400
:0F1096003400F583227580FF43F10375B0FF220C
:100F700075C40075C5FF7580FF43F10F539601439B
:100F800097FE75B0FF7594007595FF75A0FF75927B
:100F9000007593FF7590FF75C2FF75C3FF75C0FFA5
:100FA000E4FF121086E4F074022F121093E4F00FA5
:040FB000EFB408EEA4
:010FB400221A
:100A7A00E490001CF090001EF090001DF090001D04
:100A8A00E0FFC39408500D121086E4F090001DE0B8
:100A9A0004F080E9900001E004F0E05401900022A3
:100AAA00F090000CE004F0C39416400AE4F09000C1
:100ABA000AE004541FF0E490001BF090001BE0FFD2
:100ACA00C394114003020C1B900015E060259000AE
:100ADA000AE0C39F541FFF900D149390001FF0EF7C
:100AEA00900D3493900020F0EF900D5493900021D4
:100AFA00F0800DE4900021F0900020F090001FF0AB
:100B0A00900022E0FF900020E0D39F40047E008006
:100B1A00027EFF8EA0900021E0D39F40047F0080D8
:100B2A00027FFF8F9075C200900022E0FF90001FA5
:100B3A00E0D39F40047F0080027FFF8FC012109B8A
:100B4A0090001BE0FFC39408500AEF900CA693F4A0
:100B5A00F580802790001BE0FFB4080553F1FD8063
:100B6A001AEFB4090553F1FE8011EFB4100553B022
:100B7A00FD8008EF900C9E93F452B07F057E001220
:100B8A0010CE75C2FF75C0FF7F057E001210CEE43D
:100B9A00FCEC900CA69355C0706890001BE0FEEC2C
:100BAA0075F011A424AEF582E4340CF583E5822EA7
:100BBA00F582E43583F583E493FEB4F00890001ED1
:100BCA007401F0803DEE603AC394E04019EED3948C
:100BDA00E7501390000DE0FDEE900BC693FEED4E2C
:100BEA0090000DF0801C90001CE0FFC39406501288
:100BFA00740F2FF582E43400F583EEF090001CE0C8
:100C0A0004F00CEC6406708990001BE004F0020A00
:100C1A00C590001EE0601D900016E0701C90001543
:100C2A00E070047F0180027F00900015EFF0A3744A
:100C3A0001F08005E4900016F012109B75A0FF7574
:100C4A0090FF75C0FFA2A7E433FF900000E0B40153
:100C5A0011EF700E30B7047E8080027E8190000F03
:100C6A00EEF0900000EFF0E490000BF090001DF021
:100C7A0090001DE0FF121091E0FE121086E0FF6E58
:100C8A00600F90000B7401F090001DE0121091EFBC
:0B0C9A00F090001DE004F0E0B408D56D
:010CA500222C
:100FF4001210BC7F147E001210A5120F7012106222
:10100400D2AF90002BE0601B120A7A90000BE060D4
:101014001290002AE070FA04F0FB7A00790D7D0842
:0C102400120FB57F057E001210A580D6CB
:100D74001201100100000008861AE1E600010102D8
:100D8400000105010906A101050719E029E715007D
:100D94002501750195088102950175088101950366
:100DA4007501050819012903910295057501910141
:100DB4009506750826FF000507190029918100C0D2
:100DC40009022200010100A032090400000103010C
:100DD4000100092111010001223E000705810308D9
:100DE400000A040309040E037700630068002E0060
:100DF40063006E000C036B00380037003000740091
:10104C0041002A004100230041002B00410026FFF3
:05105C00420024000029
:100E90007BFF900027120F67900018E4F0A32290C8
:100EA0000027120F5E8E82758300120F1BFFE42E47
:100EB000F582E43410F583EFF090001AE004F0229C
:100EC000900018E0FEA3E0FFC3900025E09FF090A3
:100ED0000024E09EF0900028EE8FF0020F48C390AF
:100EE0000025E09408900024E0940022F09022373E
:100EF000747FF090223D74FFF022902209F090223E
:100F000001E022900018EEF0A3EFF0A3E4F02290AD
:0B0F10000018A3E0FFA3E0FEC39F2237
:060FB50090001B120F6703
:100FBB00E490001EF090001EE0FFC39D50239000B4
:100FCB001B120F5E8F82758300120F1BFE74402F56
:100FDB00F582E43410F583EEF090001EE004F0800F
:010FEB00D431
:080FEC00ED120EFA54FCF02294
:03003B00020800B8
:0D080000C0E0C0F0C083C082C0D075D00839
:10080D0090223DE0900017F0E020E503020A2390CE
:10081D00220FE0543F70030208A824F0602724F053
:10082D00607924F0601F14600424207078E4120EA7
:10083D00FA6440F090002AE4F0902201E054FC4468
:10084D0002F0020A60900026E024FB603514703D32
:10085D00120EDE40067E007F088008900024E0FE28
:03086D00A3E0FF06
:0D087000120F03120F0F5005120E9F80F69D
:10087D00120EC0902208EFF0902200E06440F002CA
:10088D000A60900024E0A3E09022078004902208E3
:10089D00E4F09022007402F0020A60902200E064FD
:1008AD0080F0020A6090220FE05438643860030231
:1008BD000A6090220074C0F0901007E0FDFE9010C9
:1008CD0006E07A002400FFEA3E900024F0A3EFF04A
:1008DD00901001E0900026F0ED700CD3900025E013
:1008ED00947F120EE54009900024E4F0A3747FF08C
:1008FD00120E98F0901000E054606003020A02900E
:10090D000026E024FB70030209DB24FC70030209BE
:10091D00EA240360030209FC901003E024FE601832
:10092D0014602124E160542421705E7A0D797412D3
:10093D000E907412F002099C7A0D79C4120E907407
:10094D0022F0804B901002E0602324FE60110470B1
:10095D00387BFF7A0D79EA120E92740EF080307B9F
:10096D00FF7A0D79F8120E92740CF080227BFF7ACB
:10097D000D79E6120E927404F080147BFF7A0D79D6
:10098D0086120E92743EF08006120E9874FFF0904F
:10099D000018E0FEA3E0FFD3900025E09F90002417
:1009AD00E09E4005EEF0A3EFF0120EDE40067E0055
:0C09BD007F088008900024E0FEA3E0FF0B
:0D09C900120F03120F0F5005120E9F80F643
:1009D600120EC08027901002E0FF900024E4F0A3DE
:1009E600EFF08018901002E0900023F0600E900067
:1009F6002B7401F08006120E9874FFF0900018E038
:100A0600FEA3E0FFF44E700890220074CFF0804AF7
:100A1600902208EFF090220074C0F0803D900017FD
:100A2600E0FF30E02A9022007402F0A3F090220C3E
:100A360014F0902207E4120EEC90002AE4F0A3F0E2
:100A460090223B7407F090223DE04401F08010EFC5
:100A560030E20C90223DE04404F090220FE4F09046
:090A6600223DE030E50302081C0A
:0B0A6F00D0D0D082D083D0F0D0E03295
:10106200C2E990223CE4F090220C04F0902209E4C0
:10107200F0902207120EEC90223B7407F0A37480CA
:04108200F0D2E9229D
:03000000020E04E9
:0C0E0400787FE4F6D8FD75810F020E4BDC
:100F1B00BB010CE58229F582E5833AF583E022508B
:100F2B0006E92582F8E622BBFE06E92582F8E222D5
:0D0F3B00E58229F582E5833AF583E49322EF
:100F4800C5F0F8A3E028F0C5F0F8E5821582700234
:060F58001583E038F022D1
:090F5E00E0FBA3E0FAA3E0F92294
:090F6700EBF0A3EAF0A3E9F0228B
:100E1000020FF4E493A3F8E493A34003F68001F2F5
:100E200008DFF48029E493A3F85407240CC8C333E3
:100E3000C4540F4420C8834004F456800146F6DFB2
:100E4000E4800B0102040810204080901030E47E02
:100E5000019360BCA3FF543F30E509541FFEE493A7
:100E6000A360010ECF54C025E060A840B8E493A36E
:100E7000FAE493A3F8E493A3C8C582C8CAC583CA99
:100E8000F0A3C8C582C8CAC583CADFE9DEE780BE51
:01106100008E
:00000001FF
