:100BB70075A15575A1AAE5B954F84405F5B9E4F549
:020BC700A12269
:100BC900EF4E600B05A105A1EF1F70F41E80F12205
:100BA000AD07AC06ED4C600E7FE87E03120BC9ED7D
:070BB0001D70F11C80EE2214
:100670000102040810204080293A3B3C3D3E3F40A7
:10068000414243444546474800351E1F202122234E
:10069000242526272D2E2A494A002B141A0815171F
:1006A0001C180C12132F30314C4D00390416070959
:1006B0000A0B0D0E0F333400284B4E00E1001D1BBA
:1006C0000619051110363738E500520000E0E3E264
:1006D000002CF000E60065E450514F0000000809CE
:1006E000090A0A0B0A0A0909080808080808090A79
:1006F0000B0C0D0C0B0A090404050506060607077A
:10070000080808080808080809090A0A0908060567
:10071000090909080808090A0B0B0C0C0C0C0C0C35
:100720000C0C0C0C0C0B0B0A0A0A09070605050534
:1007300005050507090B0D0E0F0F0F0F0F0F0F0FFC
:100740000E0E0D0C0B0A0A0A0A0A0A0A0607080905
:100750000A0B0C0D0E0E0E0D0C0B0A0908070605F0
:100760000505060708090807060606060606060E1A
:100770000E0F0F0F0D0B09080706050505050505EA
:10078000060607080A0C0D0E0E0E0E0E0E0E0E0EAD
:100790000E0E0C0C0B0B0A0A0909080808080909B7
:1007A0000A0A0B0B0C0C0A0A0A09090908080808AE
:1007B000080808080909090A0A0A080809090A0AAA
:1007C0000B0B0C0C0C0C0B0B0A0A09090808000196
:0E07D00002030B0C0D040A0F0E0509080706A4
:100B4E0041002B00410022004100340041003500DD
:080B5E004100210041002001CB
:1008880090072993FE900004E0FD240BF582E434E0
:1008980000F58322EF93FF74112DF582E43400F5FF
:1008A800832295F0FE7C0012080B90000AEDF0E020
:1008B800FF22900005E075F002A4FF900035E022C9
:1008C800900004E0FF2417F582E43400F5832274D5
:1008D8002C2FF582E43400F58322E0900670FEEFB9
:1008E80093FFEE4F222423F582E43400F58322EFB0
:1008F800F090000AE022F582E43583F583E4932240
:10090800900004E004F0227580FF43F10375B0FF06
:0109180022BC
:100AC00075C40075C5FF7580FF43F10F5396014350
:100AD00097FE75B0FF5394C043953F43A03F539298
:100AE000C043933F4392C04393C0D297D29675C2FE
:100AF000FF75C3FF75C0FF75C1FFE4FF1208D7E49F
:0E0B0000F074232F1208EFE4F00FEFB408EEAC
:010B0E0022C4
:10003E00E4900006F0900008F0900007F0900007A2
:10004E00E0FFC39408500D1208D7E4F0900007E0CB
:10005E0004F080E9900021E004F0C3940A4008E423
:10006E00F0900035E004F0E4900005F0E490000418
:10007E00F0900004E0FBC3940640030201E79000F9
:10008E0022E014603A14605E14700302017D2403B2
:10009E0060030201CC1208BA24C4FDE43409CDC3B6
:1000AE009FFFED7D191208AA9006DE12088BEEF066
:1000BE009006F712089C1208F790071002017612AC
:1000CE0008BA24ACFDE4340DCDC39FFFED7D2312A1
:1000DE0008AA120888EEF090074C12089C1208F736
:1000EE0090076F020176EB7003FF801A900004E018
:1000FE00FFD3940250047F01800CEFD3940450047C
:10010E007F0280027F03900005E0FEC3940450043A
:10011E007E008019EEC3940850047E01800F90007B
:10012E0005E0C3940C50047E0280027E03EF25E0AE
:10013E0025E024CEF582E43407F583E5822E1208FD
:10014E00FE1208BE7C002FFFEC35F0FE7D23120858
:10015E000BAF05EF120888EEF0EF90074C93FE12EE
:10016E00089FEEF0EF90076F93FF74172D80489065
:10017E000004E0FB75F0031208C124D0FDE434073F
:10018E00CDC39FFFED95F0FE7C007D141208AF905D
:10019E00079293FE740B2B120894EEF0EF9007A6C5
:1001AE0093FF900004E0FE24111208A21208F790AB
:1001BE0007BA93FF74172E1208CFEFF080151208AE
:1001CE00C8E4F074112F1208A2E4F0740B2F120879
:1001DE0094E4F012090802007F12090F900005E066
:1001EE00FFC39408500AEF90067093F4F5808027B1
:1001FE00900005E0FFB4080553F1FD801AEFB40935
:10020E000553F1FE8011EFB4100553B0FD8008EFD9
:10021E0090066893F452B0E4900009F0E490001D4B
:10022E00F0A3F0A3F0900004F0900004E0FFC3945C
:10023E0006505C74112F1208A2E0FF900009E0FE38
:10024E00EFD39E501490001EE0FF900004E0900645
:10025E007093FDEF4D90001EF01208C8E0D39E5033
:10026E000A90001F1208E290001FF0900004E0FFB9
:10027E00120892E0FE900009E0FDEED39D500A9028
:10028E00001D1208E290001DF012090802023790BC
:10029E00001EE0F5A0A3E0543F44C0F59075C200E7
:1002AE0090001DE0F5C07F017E00120BC990000981
:1002BE00E004F0E0C39410500302022A75A0FF750B
:1002CE0090FF75C2FF75C0FF7F017E00120BC9E45F
:1002DE00900004F0900004E0FFC394065071EF907C
:1002EE0006709355C07062900005E0FF900004E028
:1002FE0075F011A42478F582E43406F583E5822F97
:10030E001208FEFFB4F0089000087401F0803AEF76
:10031E006037C394E04016EFD394E7501090002C52
:10032E00E09005901208E690002CF0801C900006DC
:10033E00E0FEC394065012742E2EF582E43400F5BE
:10034E0083EFF0900006E004F01209080202E2903A
:10035E000005E004F0E0C39411500302007A90000F
:10036E0008E0601C900034E0701B900022E004F066
:10037E00E0C394054002E4F09000347401F080056F
:10038E00E4900034F012090F75A0FF7590FF75C050
:10039E00FFA297E433FF900020E0B40111EF700E3E
:1003AE003096047E6880027E6990002EEEF09000FA
:1003BE0020EFF0E490002BF0900007F0900007E0A3
:1003CE00FF1208EDE0FE1208D7E0FF6E600F9000FE
:1003DE002B7401F0900007E01208EDEFF09000078B
:0703EE00E004F0E0B408D5C3
:0103F50022E5
:10000300120BB77F147E00120BA0120AC0120B7CD6
:10001300D2AF90003EE060FA12003E90002BE06009
:10002300F190003DE070FA04F0FB7A00792C7D0832
:05003300120B0F80DD3F
:100919001201100100000008861AE1E60001010237
:10092900000105010906A101050719E029E71500DC
:1009390025017501950881029501750881019503C5
:1009490075010508190129039102950575019101A0
:100959009506750826FF000507190029918100C031
:1009690009022200010100A032090400000103016B
:100979000100092111010001223E00070581030838
:10098900000A040309040E037700630068002E00BF
:1009990063006E000C036B003800370030007400F0
:100B660041003D004100360041003E00410039FF92
:050B7600420037000001
:100A35007BFF90003A12087F900001E4F0A322901A
:100A4500003A1208768E827583001207DEFFE42EC7
:100A5500F582E43410F583EFF0900003E004F02212
:100A6500900001E0FEA3E0FFC3900038E09FF09006
:100A75000037E09EF090003BEE8FF0020860C390D7
:100A85000038E09408900037E0940022F090223777
:100A9500747FF090223D74FFF022902209F090229D
:100AA50001E022900001EEF0A3EFF0A3E4F0229024
:0B0AB5000001A3E0FFA3E0FEC39F22AE
:060B0F0090000412087FB3
:100B1500E4900007F0900007E0FFC39D502390008C
:100B2500041208768F827583001207DEFE74402F4B
:100B3500F582E43410F583EEF0900007E004F080D0
:010B4500D4DB
:080B4600ED120A9F54FCF0229D
:03003B000203F6C7
:0D03F600C0E0C0F0C083C082C0D075D00848
:1004030090223DE0900000F0E020E5030206199001
:10041300220FE0543F700302049E24F0602724F06F
:10042300607924F0601F14600424207078E4120AB9
:100433009F6440F090003DE4F0902201E054FC44BE
:1004430002F0020656900039E024FB603514703D3B
:10045300120A8340067E007F088008900037E0FE82
:03046300A3E0FF14
:0D046600120AA8120AB45005120A4480F6CA
:10047300120A65902208EFF0902200E06440F00237
:100483000656900037E0A3E09022078004902208EC
:10049300E4F09022007402F0020656902200E06419
:1004A30080F002065690220FE0543864386003024D
:1004B300065690220074C0F0901007E0FDFE9010E5
:1004C30006E07A002400FFEA3E900037F0A3EFF045
:1004D300901001E0900039F0ED700CD3900038E0FB
:1004E300947F120A8A4009900037E4F0A3747FF0E6
:1004F300120A3DF0901000E0546060030205F8908A
:100503000039E024FB70030205D124FC70030205CB
:10051300E0240360030205F2901003E024FE601858
:1005230014602124E160542421705E7A0979191240
:100533000A357412F00205927A097969120A357440
:1005430022F0804B901002E0602324FE60110470BF
:10055300387BFF7A09798F120A37740EF080307B6B
:10056300FF7A09799D120A37740CF080227BFF7A97
:1005730009798B120A377404F080147BFF7A0979A6
:100583002B120A37743EF08006120A3D74FFF09076
:100593000001E0FEA3E0FFD3900038E09F90003716
:1005A300E09E4005EEF0A3EFF0120A8340067E00C2
:0C05B3007F088008900037E0FEA3E0FF06
:0D05BF00120AA8120AB45005120A4480F670
:1005CC00120A658027901002E0FF900037E4F0A338
:1005DC00EFF08018901002E0900036F0600E900062
:1005EC003E7401F08006120A3D74FFF0900001E0A9
:1005FC00FEA3E0FFF44E700890220074CFF0804A06
:10060C00902208EFF090220074C0F0803D90000022
:10061C00E0FF30E02A9022007402F0A3F090220C4C
:10062C0014F0902207E4120A9190003DE4F0A3F03C
:10063C0090223B7407F090223DE04401F08010EFD3
:10064C0030E20C90223DE04404F090220FE4F09054
:09065C00223DE030E50302041226
:0B066500D0D0D082D083D0F0D0E032A3
:100B7C00C2E990223CE4F090220C04F0902209E4AB
:100B8C00F0902207120A9190223B7407F0A3748014
:040B9C00F0D2E92288
:030000000209A949
:0C09A900787FE4F6D8FD75810F0209F09C
:1007DE00BB010CE58229F582E5833AF583E02250D0
:1007EE0006E92582F8E622BBFE06E92582F8E2221A
:0D07FE00E58229F582E5833AF583E4932234
:10080B00BC000BBE0029EF8DF084FFADF022E4CCD1
:10081B00F875F008EF2FFFEE33FEEC33FCEE9DEC9A
:10082B00984005FCEE9DFE0FD5F0E9E4CEFD22EDE0
:10083B00F8F5F0EE8420D21CFEADF075F008EF2F2A
:10084B00FFED33FD4007985006D5F0F222C398FD1B
:05085B000FD5F0EA22B8
:10086000C5F0F8A3E028F0C5F0F8E5821582700223
:060870001583E038F022C0
:09087600E0FBA3E0FAA3E0F92283
:09087F00EBF0A3EAF0A3E9F0227A
:1009B500020003E493A3F8E493A34003F68001F255
:1009C50008DFF48029E493A3F85407240CC8C33343
:1009D500C4540F4420C8834004F456800146F6DF12
:1009E500E4800B0102040810204080900B4EE47E49
:1009F500019360BCA3FF543F30E509541FFEE49307
:100A0500A360010ECF54C025E060A840B8E493A3CD
:100A1500FAE493A3F8E493A3C8C582C8CAC583CAF8
:100A2500F0A3C8C582C8CAC583CADFE9DEE780BEB0
:010B7B000079
:00000001FF
