:100BB80075A15575A1AAE5B954F84405F5B9E4F548
:020BC800A12268
:100BCA00EF4E600B05A105A1EF1F70F41E80F12204
:100BA100AD07AC06ED4C600E7FE87E03120BCAED7B
:070BB1001D70F11C80EE2213
:100665000102040810204080293A3B3C3D3E3F40B2
:10067500414243444546474800351E1F2021222359
:10068500242526272D2E2A494A002B141A0815172A
:100695001C180C12132F30314C4D00390416070964
:1006A5000A0B0D0E0F333400284B4E00E1001D1BC5
:1006B5000619051110363738E500520000E0E3E26F
:1006C500002CF000E60065E450514F0000000809D9
:1006D500090A0A0B0A0A0909080808080808090A84
:1006E5000B0C0D0C0B0A0904040505060606070785
:1006F500080808080808080809090A0A0908060573
:10070500090909080808090A0B0B0C0C0C0C0C0C40
:100715000C0C0C0C0C0B0B0A0A0A0907060505053F
:1007250005050507090B0D0E0F0F0F0F0F0F0F0F07
:100735000E0E0D0C0B0A0A0A0A0A0A0A0607080910
:100745000A0B0C0D0E0E0E0D0C0B0A0908070605FB
:100755000505060708090807060606060606060E25
:100765000E0F0F0F0D0B09080706050505050505F5
:10077500060607080A0C0D0E0E0E0E0E0E0E0E0EB8
:100785000E0E0C0C0B0B0A0A0909080808080909C2
:100795000A0A0B0B0C0C0A0A0A09090908080808B9
:1007A500080808080909090A0A0A080809090A0AB5
:1007B5000B0B0C0C0C0C0B0B0A0A090908080001A1
:0E07C50002030B0C0D040A0F0E0509080706AF
:1000030041002B0041002200410034004100350033
:08001300410021004100200121
:10087D0090071E93FE900004E0FD240BF582E434F6
:10088D0000F58322EF93FF74112DF582E43400F50A
:10089D008322FFEE9400FE7C0012080090000AED0A
:1008AD00F0E0FF22900004E0FF2417F582E434000D
:1008BD00F58322742C2FF582E43400F58322E09029
:1008CD000665FEEF93FFEE4F222423F582E43400FC
:1008DD00F58322FFE433FE900005E0FDC3EF9D227A
:1008ED00EFF090000AE022F582E43583F583E4937E
:1008FD0022900004E004F0227580FF43F10375B0EF
:02090D00FF22C7
:100AB60075C40075C5FF7580FF43F10F539601435A
:100AC60097FE75B0FF5394C043953F43A03F5392A2
:100AD600C043933F4392C04393C0D297D29675C208
:100AE600FF75C3FF75C0FFE4FF1208C0E4F074236E
:0B0AF6002F1208D8E4F00FEFB408EE58
:010B010022D1
:10003E00E4900006F0900008F0900007F0900007A2
:10004E00E0FFC39408500D1208C0E4F0900007E0E2
:10005E0004F080E9900021E004F0C3940C4008E421
:10006E00F0900035E004F0E4900005F0E490000418
:10007E00F0900004E0FBC3940640030201E29000FE
:10008E0022E01460351460541470030201792403C5
:10009E0060030201C7900035E024191208E07D19B3
:1000AE0012089F9006D3120880EEF09006EC12080C
:1000BE00911208ED900705020172900035E024239D
:1000CE001208E07D2312089F12087DEEF090074182
:1000DE001208911208ED900764020172EB7003FF93
:1000EE00801A900004E0FFD3940250047F01800C2C
:1000FE00EFD3940450047F0280027F03900005E04A
:10010E00FEC3940450047E008019EEC3940850047C
:10011E007E01800F900005E0C3940C50047E028097
:10012E00027E03EF25E025E024C3F582E43407F5D3
:10013E0083E5822E1208F475F003A4FF900035E0DB
:10014E007C002FFFEC35F0FE7D23120800AF05EF8B
:10015E0012087DEEF0EF90074193FE120894EEF038
:10016E00EF90076493FF74172D8047900035E024BD
:10017E0014FFE433FE900004E0FBFDC3EF9DFFEEA1
:10018E009400FE7C007D141208A690078793FE74DF
:10019E000B2B120889EEF0EF90079B93FF90000453
:1001AE00E0FE24111208971208ED9007AF93FF742A
:1001BE00172E1208B8EFF080151208B1E4F0741182
:1001CE002F120897E4F0740B2F120889E4F012082E
:1001DE00FE02007F120905900005E0FFC39408504F
:1001EE000AEF90066593F4F5808027900005E0FFF6
:1001FE00B4080553F1FD801AEFB4090553F1FE80E2
:10020E0011EFB4100553B0FD8008EF90065D93F426
:10021E0052B0E4900009F0E490001DF0A3F0A3F0BA
:10022E00900004F0900004E0FFC39406505C74113B
:10023E002F120897E0FF900009E0FEEFD39E5014B6
:10024E0090001EE0FF900004E090066593FDEF4DD8
:10025E0090001EF01208B1E0D39E500A90001F12BB
:10026E0008CB90001FF0900004E0FF120887E0FE1C
:10027E00900009E0FDEED39D500A90001D1208CBB0
:10028E0090001DF01208FE02023290001EE0F5A052
:10029E00A3E0543F44C0F59075C20090001DE0F5F8
:1002AE00C07F017E00120BCA900009E004F0E0C38B
:1002BE009410500302022575C2FF75C0FF7F057EA4
:1002CE0000120BCAE4900004F0900004E0FFC39407
:1002DE00065071EF9006659355C07062900005E070
:1002EE00FF900004E075F011A4246DF582E434064D
:1002FE00F583E5822F1208F4FFB4F008900008741D
:10030E0001F0803AEF6037C394E04016EFD394E7E4
:10031E00501090002CE09005851208CF90002CF024
:10032E00801C900006E0FEC394065012742E2EF52B
:10033E0082E43400F583EFF0900006E004F012083A
:10034E00FE0202D7900005E004F0E0C394115003C2
:10035E0002007A900008E0601C900034E0701B9060
:10036E000022E004F0E0C394054002E4F090003473
:10037E007401F08005E4900034F012090575A0FFB9
:10038E007590FF75C0FFA297E433FF900020E0B494
:10039E000111EF700E3096047E4B80027E4E90005F
:1003AE002EEEF0900020EFF0E490002BF09000077E
:1003BE00F0900007E0FF1208D6E0FE1208C0E0FF42
:1003CE006E600F90002B7401F0900007E01208D6BB
:0C03DE00EFF0900007E004F0E0B408D558
:0103EA0022F0
:100B4100120BB87F147E00120BA1120AB6120B7D94
:100B5100D2AF90003EE0601B12003E90002BE0609F
:100B61001290003DE070FA04F0FB7A00792C7D08C8
:0C0B7100120B027F057E00120BA180D643
:10090F001201100100000008861AE1E60001010241
:10091F00000105010906A101050719E029E71500E6
:10092F0025017501950881029501750881019503CF
:10093F0075010508190129039102950575019101AA
:10094F009506750826FF000507190029918100C03B
:10095F0009022200010100A0320904000001030175
:10096F000100092111010001223E00070581030842
:10097F00000A040309040E037700630068002E00C9
:10098F0063006E000C036B003800370030007400FA
:10001B0041003D004100360041003E00410039FFE8
:05002B00420037000057
:100A2B007BFF90003A120874900001E4F0A322902F
:100A3B00003A12086B8E827583001207D3FFE42EE7
:100A4B00F582E43410F583EFF0900003E004F0221C
:100A5B00900001E0FEA3E0FFC3900038E09FF09010
:100A6B000037E09EF090003BEE8FF0020855C390EC
:100A7B000038E09408900037E0940022F090223781
:100A8B00747FF090223D74FFF022902209F09022A7
:100A9B0001E022900001EEF0A3EFF0A3E4F022902E
:0B0AAB000001A3E0FFA3E0FEC39F22B8
:060B0200900004120874CB
:100B0800E4900007F0900007E0FFC39D5023900099
:100B18000412086B8F827583001207D3FE74402F6E
:100B2800F582E43410F583EEF0900007E004F080DD
:010B3800D4E8
:080B3900ED120A9554FCF022B4
:03003B000203EBD2
:0D03EB00C0E0C0F0C083C082C0D075D00853
:1003F80090223DE0900000F0E020E50302060E9018
:10040800220FE0543F700302049324F0602724F085
:10041800607924F0601F14600424207078E4120AC4
:10042800956440F090003DE4F0902201E054FC44D3
:1004380002F002064B900039E024FB603514703D51
:10044800120A7940067E007F088008900037E0FE97
:03045800A3E0FF1F
:0D045B00120A9E120AAA5005120A3A80F6F3
:10046800120A5B902208EFF0902200E06440F0024C
:10047800064B900037E0A3E0902207800490220802
:10048800E4F09022007402F002064B902200E0642F
:1004980080F002064B90220FE05438643860030263
:1004A800064B90220074C0F0901007E0FDFE9010FB
:1004B80006E07A002400FFEA3E900037F0A3EFF050
:1004C800901001E0900039F0ED700CD3900038E006
:1004D800947F120A804009900037E4F0A3747FF0FB
:1004E800120A33F0901000E0546060030205ED90AA
:1004F8000039E024FB70030205C624FC70030205E2
:10050800D5240360030205E7901003E024FE601879
:1005180014602124E160542421705E7A09790F1255
:100528000A2B7412F00205877A09795F120A2B7474
:1005380022F0804B901002E0602324FE60110470CA
:10054800387BFF7A097985120A2D740EF080307B8A
:10055800FF7A097993120A2D740CF080227BFF7AB6
:10056800097981120A2D7404F080147BFF7A0979C5
:1005780021120A2D743EF08006120A3374FFF0909F
:100588000001E0FEA3E0FFD3900038E09F90003721
:10059800E09E4005EEF0A3EFF0120A7940067E00D7
:0C05A8007F088008900037E0FEA3E0FF11
:0D05B400120A9E120AAA5005120A3A80F699
:1005C100120A5B8027901002E0FF900037E4F0A34D
:1005D100EFF08018901002E0900036F0600E90006D
:1005E1003E7401F08006120A3374FFF0900001E0BE
:1005F100FEA3E0FFF44E700890220074CFF0804A11
:10060100902208EFF090220074C0F0803D9000002D
:10061100E0FF30E02A9022007402F0A3F090220C57
:1006210014F0902207E4120A8790003DE4F0A3F051
:1006310090223B7407F090223DE04401F08010EFDE
:1006410030E20C90223DE04404F090220FE4F0905F
:09065100223DE030E5030204073C
:0B065A00D0D0D082D083D0F0D0E032AE
:100B7D00C2E990223CE4F090220C04F0902209E4AA
:100B8D00F0902207120A8790223B7407F0A374801D
:040B9D00F0D2E92287
:0300000002099F53
:0C099F00787FE4F6D8FD75810F0209E6B0
:1007D300BB010CE58229F582E5833AF583E02250DB
:1007E30006E92582F8E622BBFE06E92582F8E22225
:0D07F300E58229F582E5833AF583E493223F
:10080000BC000BBE0029EF8DF084FFADF022E4CCDC
:10081000F875F008EF2FFFEE33FEEC33FCEE9DECA5
:10082000984005FCEE9DFE0FD5F0E9E4CEFD22EDEB
:10083000F8F5F0EE8420D21CFEADF075F008EF2F35
:10084000FFED33FD4007985006D5F0F222C398FD26
:050850000FD5F0EA22C3
:10085500C5F0F8A3E028F0C5F0F8E582158270022E
:060865001583E038F022CB
:09086B00E0FBA3E0FAA3E0F9228E
:09087400EBF0A3EAF0A3E9F02285
:1009AB00020B41E493A3F8E493A34003F68001F216
:1009BB0008DFF48029E493A3F85407240CC8C3334D
:1009CB00C4540F4420C8834004F456800146F6DF1C
:1009DB00E4800B0102040810204080900003E47EA9
:1009EB00019360BCA3FF543F30E509541FFEE49311
:1009FB00A360010ECF54C025E060A840B8E493A3D8
:100A0B00FAE493A3F8E493A3C8C582C8CAC583CA02
:100A1B00F0A3C8C582C8CAC583CADFE9DEE780BEBA
:0100300000CF
:00000001FF
