:1010960075A15575A1AAE5B954F84405F5B9E4F565
:0210A600A12285
:1010A800EF4E600B05A105A1EF1F70F41E80F12221
:10107F00AD07AC06ED4C600E7FE87E031210A8EDB5
:07108F001D70F11C80EE2230
:100CA9000102040810204080293A3B3C3D3E3F4068
:100CB900414243444546474800351E1F202122230F
:100CC900242526272D2E2A494A002B141A081517E0
:100CD9001C180C12132F30314C4D0039041607091A
:100CE9000A0B0D0E0F333400284B4E00E1001D1B7B
:100CF9000619051110363738E500520000E0E3E225
:100D0900002CF000E60065E450514F00000002029B
:100D190002020202010101010101020202020000B4
:100D290000010101010101010101010101010202A9
:0E0D3900020101010202020202020202020293
:10100A0041000B00410015014100160041000A0091
:0C101A0041000C004100010041000001F9
:10106000740D2FF582E43400F583222402F582E426
:0F1070003400F583227580FF43F10375B0FF2232
:100F430075C40075C5FF7580FF43F10F53960143C8
:100F530097FE75B0FF5394C043953F43A03F539210
:100F6300C043933F4392C04393C0D297D29675C276
:100F7300FF75C3FF75C0FFE4FF121060E4F0740255
:0B0F83002F12106DE4F00FEFB408EE29
:010F8E002240
:100A7A00E490001CF090001EF090001DF090001D04
:100A8A00E0FFC39408500D121060E4F090001DE0DE
:100A9A0004F080E9900001E004F0E05401900022A3
:100AAA00F090000CE004F0C39423400AE4F09000B4
:100ABA000AE004540FF0E490001BF090001BE0FFE2
:100ACA00C394114003020C1E900015E060259000AB
:100ADA000AE0C39F540FFF900D179390001FF0EF89
:100AEA00900D2793900020F0EF900D3793900021FE
:100AFA00F0800DE4900021F0900020F090001FF0AB
:100B0A00900022E0FF900020E0D39F40047E008006
:100B1A00027EFF8EA0900021E0D39F40047F0080D8
:100B2A00027F3FEF44C0F59075C200900022E0FFBB
:100B3A0090001FE0D39F40047F0080027FFF8FC098
:100B4A0012107590001BE0FFC39408500AEF900C36
:100B5A00A993F4F580802790001BE0FFB4080553A1
:100B6A00F1FD801AEFB4090553F1FE8011EFB410BC
:100B7A000553B0FD8008EF900CA193F452B07F05A5
:100B8A007E001210A875C2FF75C0FF7F057E001295
:100B9A0010A8E4FCEC900CA99355C0706890001B57
:100BAA00E0FEEC75F011A424B1F582E4340CF5836F
:100BBA00E5822EF582E43583F583E493FEB4F008EA
:100BCA0090001E7401F0803DEE603AC394E0401933
:100BDA00EED394E7501390000DE0FDEE900BC9930D
:100BEA00FEED4E90000DF0801C90001CE0FFC394B7
:100BFA00065012740F2FF582E43400F583EEF0905C
:100C0A00001CE004F00CEC6406708990001BE00400
:100C1A00F0020AC590001EE0601D900016E0701CEC
:100C2A00900015E070047F0180027F00900015EFAC
:100C3A00F0A37401F08005E4900016F012107575A7
:100C4A00A0FF7590FF75C0FFA297E433FF900000E4
:100C5A00E0B40111EF700E3096047E4B80027E4E96
:100C6A0090000FEEF0900000EFF0E490000BF0908F
:100C7A00001DF090001DE0FF12106BE0FE121060E4
:100C8A00E0FF6E600F90000B7401F090001DE012FF
:0E0C9A00106BEFF090001DE004F0E0B408D500
:010CA8002229
:100FCE001210967F147E0012107F120F4312103CE7
:100FDE00D2AF90002BE0601B120A7A90000BE060FB
:100FEE001290002AE070FA04F0FB7A00790D7D0869
:0C0FFE00120F8F7F057E0012107F80D63E
:100D47001201100100000008861AE1E60001010205
:100D5700000105010906A101050719E029E71500AA
:100D67002501750195088102950175088101950393
:100D7700750105081901290391029505750191016E
:100D87009506750826FF000507190029918100C0FF
:100D970009022200010100A0320904000001030139
:100DA7000100092111010001223E00070581030806
:100DB700000A040309040E037700630068002E008D
:100DC70063006E000C036B003800370030007400BE
:1010260041002A004100230041002B00410026FF19
:0510360042002400004F
:100E63007BFF900027120F3A900018E4F0A3229022
:100E73000027120F318E82758300120EEEFFE42ECF
:100E8300F582E43410F583EFF090001AE004F022C9
:100E9300900018E0FEA3E0FFC3900025E09FF090D0
:100EA3000024E09EF0900028EE8FF0020F1BC39009
:100EB3000025E09408900024E0940022F09022376B
:100EC300747FF090223D74FFF022902209F090226B
:100ED30001E022900018EEF0A3EFF0A3E4F02290DB
:0B0EE3000018A3E0FFA3E0FEC39F2265
:060F8F0090001B120F3A56
:100F9500E490001EF090001EE0FFC39D50239000DA
:100FA5001B120F318F82758300120EEEFE74402FD7
:100FB500F582E43410F583EEF090001EE004F08035
:010FC500D457
:080FC600ED120ECD54FCF022E7
:03003B00020800B8
:0D080000C0E0C0F0C083C082C0D075D00839
:10080D0090223DE0900017F0E020E503020A2390CE
:10081D00220FE0543F70030208A824F0602724F053
:10082D00607924F0601F14600424207078E4120EA7
:10083D00CD6440F090002AE4F0902201E054FC4495
:10084D0002F0020A60900026E024FB603514703D32
:10085D00120EB140067E007F088008900024E0FE55
:03086D00A3E0FF06
:0D087000120ED6120EE25005120E7280F626
:10087D00120E93902208EFF0902200E06440F002F7
:10088D000A60900024E0A3E09022078004902208E3
:10089D00E4F09022007402F0020A60902200E064FD
:1008AD0080F0020A6090220FE05438643860030231
:1008BD000A6090220074C0F0901007E0FDFE9010C9
:1008CD0006E07A002400FFEA3E900024F0A3EFF04A
:1008DD00901001E0900026F0ED700CD3900025E013
:1008ED00947F120EB84009900024E4F0A3747FF0B9
:1008FD00120E6BF0901000E054606003020A02903B
:10090D000026E024FB70030209DB24FC70030209BE
:10091D00EA240360030209FC901003E024FE601832
:10092D0014602124E160542421705E7A0D79471200
:10093D000E637412F002099C7A0D7997120E63748E
:10094D0022F0804B901002E0602324FE60110470B1
:10095D00387BFF7A0D79BD120E65740EF080307BF9
:10096D00FF7A0D79CB120E65740CF080227BFF7A25
:10097D000D79B9120E657404F080147BFF7A0D7930
:10098D0059120E65743EF08006120E6B74FFF090D6
:10099D000018E0FEA3E0FFD3900025E09F90002417
:1009AD00E09E4005EEF0A3EFF0120EB140067E0082
:0C09BD007F088008900024E0FEA3E0FF0B
:0D09C900120ED6120EE25005120E7280F6CC
:1009D600120E938027901002E0FF900024E4F0A30B
:1009E600EFF08018901002E0900023F0600E900067
:1009F6002B7401F08006120E6B74FFF0900018E065
:100A0600FEA3E0FFF44E700890220074CFF0804AF7
:100A1600902208EFF090220074C0F0803D900017FD
:100A2600E0FF30E02A9022007402F0A3F090220C3E
:100A360014F0902207E4120EBF90002AE4F0A3F00F
:100A460090223B7407F090223DE04401F08010EFC5
:100A560030E20C90223DE04404F090220FE4F09046
:090A6600223DE030E50302081C0A
:0B0A6F00D0D0D082D083D0F0D0E03295
:10103C00C2E990223CE4F090220C04F0902209E4E6
:10104C00F0902207120EBF90223B7407F0A374801D
:04105C00F0D2E922C3
:03000000020DD717
:0C0DD700787FE4F6D8FD75810F020E1E37
:100EEE00BB010CE58229F582E5833AF583E02250B9
:100EFE0006E92582F8E622BBFE06E92582F8E22203
:0D0F0E00E58229F582E5833AF583E493221C
:100F1B00C5F0F8A3E028F0C5F0F8E5821582700261
:060F2B001583E038F022FE
:090F3100E0FBA3E0FAA3E0F922C1
:090F3A00EBF0A3EAF0A3E9F022B8
:100DE300020FCEE493A3F8E493A34003F68001F249
:100DF30008DFF48029E493A3F85407240CC8C33311
:100E0300C4540F4420C8834004F456800146F6DFDF
:100E1300E4800B010204081020408090100AE47E55
:100E2300019360BCA3FF543F30E509541FFEE493D4
:100E3300A360010ECF54C025E060A840B8E493A39B
:100E4300FAE493A3F8E493A3C8C582C8CAC583CAC6
:100E5300F0A3C8C582C8CAC583CADFE9DEE780BE7E
:01103B0000B4
:00000001FF
